:1000000009C016C015C014C013C012C011C010C062
:100010000FC00EC011241FBECFE9CDBF10E0A0E677
:10002000B0E001C01D92A336B107E1F737D093C00D
:10003000E7CF682FC2988FEF20E030E021C086B371
:1000400090E08170907048175907C9F386B38170AA
:100050002230310514F4C29806C067FF02C0C29A6C
:1000600001C0C298660F482F50E086B390E08170BF
:10007000907048175907C9F386B381702F5F3F4FBF
:100080002B3031051CF4482F50E0D9CF809362000B
:100090003093610020936000C29A0895CF92DF925E
:1000A000EF92FF920F931F93CF93DF93BA9AB89872
:1000B000B998C29A88EB98E829E130E0F9013197C4
:1000C000F1F70197D9F784E8B4DF94EFC92E91E0F6
:1000D000D92E89E1E82EF12C08EE13E0B199FECF7C
:1000E000C0E0D0E0B19903C021E030E004C084E07A
:1000F000A0DF20E030E0C6010197F1F7219681E012
:10010000C039D80719F0232B69F71CC0232BD1F075
:1001100089EA8FDFC8010197F1F786EB8ADFC80112
:100120000197F1F789E085DF88E893E1F7013197DE
:10013000F1F70197D9F780EA7CDFC8010197F1F761
:1001400080EB77DF80E29EE4F7013197F1F70197CA
:0A01500009F4C4CFF9CFF894FFCFF3
:00000001FF
